:1000000003C11BC11AC119C126C117C116C115C12F
:1000100014C113C112C111C110C10FC10EC10DC154
:100020000CC10BC10AC11EC21FC220C221C222C202
:1000300023C224C225C25F030003247E24247E241D
:100040002E6B2A6B3A0646300C62603649493650B0
:1000500004033C428181423C082A1C1C2A080808EF
:100060003E080880600808080840C0300C033E5174
:1000700049453E427F407149494641494936181435
:10008000127F10474545393E49493201611907360B
:100090004949360649493E44804C0814224114140B
:1000A000141441221408015909063E415D555D5161
:1000B0000E7E09097E7F4949363E4141417F4141DB
:1000C0003E7F4949417F0909013E414149387F0846
:1000D000087F417F413141417F7F081422417F40A9
:1000E00040407F02040804027F7F0408107F3E41E5
:1000F00041413E7F0909063E4141215E7F09097663
:100100004649493101017F01013F4040403F0F30E6
:1001100040300F0F30403040300F63140814630735
:10012000087008076151494543FF8181030C30C0C5
:100130008181FF0402010204404040400102043872
:1001400044447C7F444438384444443844447F38F1
:1001500054545808FE090118A4A4787F0404787A3E
:10016000807A7F1028443F40407C047C04787C04E3
:10017000047838444438FC242418182424FC7C08CF
:100180000448545424043F44403C40403C0C30401C
:10019000300C3C4020403C44281028441CA0A07C4B
:1001A0006454544C083E41FF413E08180408100CAA
:1001B0000E1F3F7E3F1F0E143E55554141791414CA
:1001C00079394444393D40403DFF01493639444482
:1001D0007DFC20201C13656523365241453445447F
:1001E000444124444744444454345475545445557C
:1001F00075553435434444444412435444434445C0
:10020000554431357644444411241FBECFEDCDBF53
:1002100010E0A0E6B0E0E4EDF7E002C005900D923A
:10022000AA37B107D9F710E0AAE7B0E001C01D92E4
:10023000A339B107E1F72FD1CBC2E2CE9C011092D6
:100240008300109282008091820090918300821737
:100250009307C8F308951F920F920FB60F921124BF
:100260002F938F939F93EF93FF93809182009091B0
:1002700083000196909383008093820080917E009A
:1002800090917F00019690937F0080937E008091F3
:100290007E0090917F00449768F010927F0010924A
:1002A0007E00809180009091810001969093810062
:1002B0008093800020B3207480919000821709F40D
:1002C00070C08091910090919200039748F4109231
:1002D0009200109291008FEF809379001092840029
:1002E000809179008F3F49F4222309F053C0109286
:1002F000790081E0809387004DC08091790088303B
:100300000CF045C08091910090919200409738F494
:100310009091840080918700809589230BC0809103
:10032000910090919200809790F490918400809138
:100330008700892B80938400809179008F5F809360
:10034000790080918700880F809387000EC080918C
:100350007900873054F480917B00882331F481E068
:1003600080937A008FEF80937900809179008830B4
:1003700019F481E08093860080917B00882351F4FA
:1003800080917900813031F480937B0003C08FEF3E
:100390008093790020939000109292001092910027
:1003A0001DC08091910090919200019690939200CF
:1003B000809391008091910090919200885E9D4F72
:1003C00068F010929200109291008FEF8093790064
:1003D00080917B00813011F410927B0080917E002F
:1003E00090917F00892B09F04CC08BB38C7F8BBB25
:1003F000D99A8BEC88BB82B3807C82BB82B3846247
:1004000082BB80917800882309F43BC080917C00F6
:100410008F5F80937C0080917C00883010F0109278
:100420007C00E0917C00F0E0E857FF4FE0818E2FE8
:10043000E0FDD89A81FDC59A82FDC49A83FD949A05
:1004400084FDC29A85FD939A86FD919AE7FD909A64
:1004500080917C00E82FF0E0E830F10590F4ED5E4B
:10046000FF4F099495980DC0D9980BC0C09809C04A
:10047000929807C0C79805C0C19803C0C69801C02C
:10048000C398FF91EF919F918F912F910F900FBE85
:100490000F901F901895DF93CF93CDB7DEB72897B5
:1004A0000FB6F894DEBF0FBECDBF8EB588608EBD8F
:1004B0008EB581608EBD87EC90E09BBD8ABD89B70B
:1004C000806489BF479A8E98969AD29ADA988AB3AE
:1004D00083608ABB87B38FEF87BB81B38F6381BB98
:1004E0007894DA9A88E99AE3A9DE86990AC082E0CC
:1004F00080937B0088E180938B0080938C00109226
:100500009000E2E0CE2E72E0F72E64E0B62E8091ED
:100510007B00813081F480918600882321F48091D2
:100520007B008130C1F38091840089831092860022
:1005300011E001E0D1C080917B00823009F510E02C
:100540001AC0809186008823E1F3123028F480914C
:1005500084008A3A71F40CC017FD0BC060918400CE
:10056000812F90E027D1809178008095809378004A
:100570001F5F1092860080917B00823011F3AAC029
:100580008F2D90E00FD1682FDF2CD394823080F430
:1005900080917A00882351F010927A00613029F41A
:1005A00052E0C52E42E0F42E95C0CD2CFC2C92C01A
:1005B0008A3020F43EEFB32EB80E8BC08A3031F46F
:1005C00080917D00809580937D0083C08B3031F4D5
:1005D00080917A00882309F47DC07BC08631D0F4F5
:1005E00080917A00882309F074C0109281001092E3
:1005F0008000E62FF0E0EE0FFF1FEC5BFF4F019055
:10060000F081E02D80918000909181008E179F07EE
:10061000C8F35FC08E31E8F495E2E92EF12CE81AB8
:10062000F10883E0EE0CFF1C8A95E1F700E010E092
:10063000C8018E0D9F1DB6D0FE01E00FF11F818312
:100640000F5F1F4F0830110599F7FD2C18E008E0E7
:1006500043C0813228F4082F0D51FD2C10E03CC01E
:100660008738B8F570E010E0A0E0B0E014C0E72FE4
:10067000E695F0E0EB52FE4F849140FD02C082957A
:100680008F70182F1F70215230404217530714F4F7
:10069000A10FB11D7F5F472F50E0262F30E0C90129
:1006A0008097481759071CF39D012A5C3F4FAE0104
:1006B0004F5F5F4FDA0105C0F90184918D932F5F81
:1006C0003F4F8A2F841B8117B8F3012F0F5FFD2C3A
:1006D00003C0FD2C10E000E0EE245BC0BB2021F144
:1006E0001092830010928200DA9881E013C09091FA
:1006F0008F0080918700892319F086E190E002C085
:100700008AE090E09BDD8BB394E089278BBB8091DE
:100710008700880F8093870080918700882339F7AE
:1007200088E090E08BDDDA9A26E030E0F901E857C6
:10073000FF4F8081F901E757FF4F80832150304000
:10074000FFEF2F3F3F0791F7E11640F480917D00C6
:10075000FE01EE0DF11D9181892702C080917D007F
:10076000809388001092810010928000EB2DF0E0C1
:10077000E059FF4F8081282F30E0809180009091D8
:1007800081008217930720F480917B008823A9F3CE
:10079000E394E01608F0BBCE80917A00882309F438
:1007A0009DCFB5CEE199FECF1FBA8EBBE09A9927B7
:1007B0008DB30895262FE199FECF1CBA1FBA8EBBC8
:1007C0002DBB0FB6F894E29AE19A0FBE01960895F8
:0407D000F894FFCFCB
:1007D40032006400FA00F401E803DC05D007881352
:0A07E40000051420406080FFFFFFB5
:00000001FF
